:020000040800F2
:10000000081E002089010008690400086104000836
:10001000650400085B020008450E000800000000AF
:10002000000000000000000000000000550600086D
:100030004103000800000000D10500084107000846
:10004000A3010008A3010008A5070008A3010008F8
:10005000A3010008A3010008A3010008A3010008F0
:10006000A3010008A3010008A3010008A3010008E0
:10007000A3010008A3010008A3010008A3010008D0
:10008000A3010008A3010008A3010008A3010008C0
:10009000A3010008A3010008A3010008A3010008B0
:1000A000A3010008A3010008A3010008A3010008A0
:1000B000A9070008A3010008A3010008A301000884
:1000C000A3010008A3010008A3010008A301000880
:1000D000A3010008A3010008A3010008A301000870
:1000E000A3010008A3010008A301000800F002F822
:1000F00000F03AF80AA090E8000C82448344AAF188
:100100000107DA4501D100F02FF8AFF2090EBAE885
:100110000F0013F0010F18BFFB1A43F0010318473B
:10012000581B0000781B0000103A24BF78C878C123
:10013000FAD8520724BF30C830C144BF04680C60ED
:10014000704700000023002400250026103A28BF35
:1001500078C1FBD8520728BF30C148BF0B60704739
:100160001FB51FBD10B510BD00F044F81146FFF7D4
:10017000F7FF00F081FF00F062F803B4FFF7F2FF31
:1001800003BC00F063F800000948804709480047B5
:10019000FEE7FEE7FEE7FEE7FEE7FEE7FEE7FEE737
:1001A000FEE7FEE704480549054A064B7047000094
:1001B00045070008ED00000808180020081E002070
:1001C000081A0020081A002070477047704710B5C1
:1001D00000F008F8006810BD10B5044600F002F801
:1001E000046010BD00487047A81700200048704701
:1001F000A81700207546FFF7F9FFAE4605006946CF
:10020000534620F00700854618B020B5FFF7CAFF17
:10021000BDE820404FF000064FF000074FF0000807
:100220004FF0000B21F00701AC46ACE8C009ACE888
:10023000C009ACE8C009ACE8C0098D467047044667
:10024000AFF300802046FFF798FF00000149182017
:10025000ABBEFEE726000200704700BFFEE70000CD
:100260002DE9F04F87B005460F4616469846002404
:100270004046109901F002FC069052E04FF0804198
:10028000304601F0CBF94FF080410590304601F047
:10029000C5F90390204601F09FFA0290039901F0FE
:1002A000EDFB0490119901F0E3FA8346059901F002
:1002B000B5F982468AF0004B584600F0EFFD4FF04A
:1002C0007E51009001F036F9019001F007F90246E5
:1002D0000B46CDE902010020174900F025FFCDE9CA
:1002E000040100F0EFFE81464946069801F0C0FA8D
:1002F0008346109901F01EF945F8240055F82400B2
:1003000001F0ECF802460B46CDE9020100200B4952
:1003100000F00AFFCDE9040101F05EF827F81400AF
:10032000641C204601F058FA8346314601F06CFA0D
:10033000A4D307B0BDE8F08F0000F03F882A9141B8
:1003400070472DE9F04102460025002600200023D9
:100350000024002791F803C00CF00F0591F803C0AA
:100360000CF0100CBCF1000F03D091F802C04CEA65
:10037000050591F800C0BCF1000F31D014680020D1
:100380002BE04FF0010C0CFA00F3B1F800C00CEABE
:1003900003069E4220D183004FF00F0C0CFA03F7A6
:1003A000BC4305FA03FC4CEA040491F803C0BCF119
:1003B000280F06D14FF0010C0CFA00FCC2F814C053
:1003C0000AE091F803C0BCF1480F05D14FF0010CD1
:1003D0000CFA00FCC2F810C0401C0828D1D31460ED
:1003E000B1F800C0BCF1FF0F34DD546800202EE0EE
:1003F00000F1080C4FF0010808FA0CF3B1F800C046
:100400000CEA03069E4221D183004FF00F0C0CFA38
:1004100003F7BC4305FA03FC4CEA040491F803C05B
:10042000BCF1280F05D100F1080C08FA0CF8C2F84D
:10043000148091F803C0BCF1480F07D100F1080CFB
:100440004FF0010808FA0CF8C2F81080401C082888
:10045000CED35460BDE8F0814161704701617047BF
:1004600000BFFEE700BFFEE77047000070B5002147
:1004700000230F22C47804B3154C246804F4E0640C
:10048000C4F5E064210AC1F10403CA40447804FAC7
:1004900003F184781440214309010E4C0678A155DC
:1004A000047804F01F050124AC4005786D11AD00FF
:1004B00005F1E025C5F8004109E0047804F01F05C6
:1004C0000124AC40044D0678761145F8264070BDF5
:1004D0000CED00E000E400E080E100E030B589B020
:1004E00005460C460121084600F074F8012105205C
:1004F00000F090F80F20ADF8200018208DF82300B0
:1005000003208DF8220008A93048FFF71AFF4FF0AA
:10051000804000F0D5F9ADF81850ADF81440002037
:10052000ADF81A00ADF8160005A94FF0804000F0B4
:1005300037FC6020ADF804000120ADF80600002073
:10054000ADF80C003220ADF80A0001A9400700F018
:10055000C5FA01A94FF0804000F016FB01A94FF049
:10056000804000F071FB01A94FF0804000F0C6FB15
:100570000821C80600F0FEFA0821C80600F056FB64
:100580000821C80600F0B0FB0821C80600F0F4FB03
:1005900001221146900700F098FA1C208DF8000007
:1005A00000208DF8010003208DF8020001208DF855
:1005B00003006846FFF75AFF0121880700F064F93D
:1005C0000121880700F06FF909B030BD0008014033
:1005D0007047000029B1064AD2690243044BDA6130
:1005E00004E0034AD2698243014BDA61704700009C
:1005F0000010024029B1064A12690243044B1A61F5
:1006000004E0034A12698243014B1A6170470000FB
:100610000010024029B1064A92690243044B9A61D4
:1006200004E0034A92698243014B9A6170470000DB
:100630000010024029B1064AD2680243044BDA6036
:1006400004E0034AD2688243014BDA60704700003D
:1006500000100240704710B500F002F810BD000015
:100660000CB50020019000903348006840F48030C1
:100670003149086000BF3048006800F40030009045
:100680000198401C0190009818B90198B0F5A06F2E
:10069000F1D12948006800F4003010B10120009029
:1006A00001E0002000900098012843D12348006811
:1006B00040F01000214908600846006820F007005B
:1006C00008600846006840F0020008601A48406868
:1006D000194948600846406848600846406840F448
:1006E000806048600846406820F47C1048600846F6
:1006F000406840F4E81048600846006840F08070A8
:10070000086000BF0C48006800F000700028F9D0B5
:100710000948406820F003000749486008464068DF
:1007200040F00200486000BF0348406800F00C0041
:100730000828F9D10CBD0000001002400020024042
:100740007047000010B51348006840F001001149DF
:10075000086008464068104908400E49486008464D
:1007600000680E4908400B4908600846006820F4FC
:10077000802008600846406820F4FE0048604FF47E
:100780001F008860FFF767FF4FF0006004490860B2
:1007900010BD0000001002400000FFF8FFFFF6FE51
:1007A00008ED00E07047000070B50121880700F0F7
:1007B0007BF9002856D00121880700F071F82A48FB
:1007C0002A49096830F81100294991FBF0F001210C
:1007D00091FBF0F5284600F0FFFF0446254920462E
:1007E00001F012F803D224482449086008E02146A9
:1007F000234800F013FF054600F0D2FF1F490860B0
:10080000204801680068401C1E4A10601B480068B0
:10081000814226DD00201146086014480068B0F5CA
:100820007A7F1EDA1048114A126830F812104FF021
:10083000804000F0AEFA00214FF0804000F0ADFAA9
:1008400009480A4A126830F8125005EBD570411079
:100850004FF0804000F09FFA04480068401C0349B4
:10086000086000BF70BD0000D80F00201C000020F1
:1008700000A24A0400C82F494019010024000020AA
:1008800000A08C472000002021B1028842F08002A5
:10089000028004E002884FF67F731A40028070479E
:1008A000CA430282704721B1028842F001020280ED
:1008B00004E002884FF6FE731A4002807047000081
:1008C00010B504466848844208D10121C014FFF7DE
:1008D000B1FE0021E014FFF7ADFEC4E0B4F1804F9B
:1008E00008D101210846FFF785FE00210120FFF70E
:1008F00081FEB8E05D48844208D101210220FFF763
:1009000079FE00210220FFF775FEACE058488442D2
:1009100008D101210420FFF76DFE00210420FFF71C
:1009200069FEA0E05348844208D101210820FFF766
:1009300061FE00210820FFF75DFE94E04E488442EE
:1009400008D101211020FFF755FE00211020FFF7EC
:1009500051FE88E04948844208D101212020FFF758
:1009600049FE00212020FFF745FE7CE044488442F8
:1009700008D101214014FFF75DFE00216014FFF74C
:1009800059FE70E03F48844209D10121C804FFF7B5
:1009900051FE00214FF40020FFF74CFE63E03A487F
:1009A000844209D101210805FFF744FE00214FF4DC
:1009B0008010FFF73FFE56E03448844209D1012100
:1009C0004805FFF737FE00214FF40010FFF732FE15
:1009D00049E02F48844208D101214020FFF70AFE58
:1009E00000214020FFF706FE3DE02A48844208D15E
:1009F00001218020FFF7FEFD00218020FFF7FAFD96
:100A000031E02548844208D101218015FFF7F2FD2D
:100A10000021A015FFF7EEFD25E02048844209D112
:100A200001210804FFF706FE00214FF48030FFF794
:100A300001FE18E01A48844209D101214804FFF759
:100A4000F9FD00214FF40030FFF7F4FD0BE01548ED
:100A5000844208D101218804FFF7ECFD00214FF406
:100A60008020FFF7E7FD10BD002C0140000400408E
:100A700000080040000C004000100040001400403E
:100A800000340140004C014000500140005401403E
:100A900000180040001C00400020004000400140C1
:100AA000004401400048014030B5024600200023C8
:100AB0000024158A05EA0103958905EA010413B1AA
:100AC0000CB1012000E0002030BD1AB183890B4336
:100AD000838102E083898B438381704770B5002452
:100AE00000220023058C4FF6FE7635400584028CEB
:100AF0008388048B4FF68F752C40B51E2C400D88D3
:100B00002C43751E2A400D892A434D882A43144DD3
:100B1000A8420BD0134DA84208D0134DA84205D0CF
:100B2000124DA84202D0124DA84213D14FF6F775CC
:100B30002A404D892A434FF6FB752A408D882A4367
:100B40004FF6FF652B404FF6FF552B408D892B4309
:100B5000CD892B4383800483CD888586028470BD34
:100B6000002C01400034014000400140004401409D
:100B7000004801400A460021018B4FF6F7731940E7
:100B8000114301837047000070B500240022002348
:100B9000058C4FF6EF7635400584028C8388048BF4
:100BA00048F6FF752C404FF6FF452C400D884FF658
:100BB000FF7606EA05252C434FF6DF752A400D899E
:100BC00006EA05152A434D8806EA05152A43154D00
:100BD000A84202D0144DA8421DD14FF67F752A407D
:100BE0004D894FF6FF7606EA05152A434FF6BF7585
:100BF0002A408D8806EA05152A434FF6FF352B401B
:100C00004FF2FF752B408D8906EA85052B43CD8970
:100C100006EA85052B4383800483CD8805870284FB
:100C200070BD0000002C0140003401400A46002144
:100C3000018B4FF2FF7319404FF6FF7303EA022353
:100C4000194301837047000070B50024002200237F
:100C5000058C4FF6FF6635400584028C8388848BB3
:100C60004FF68F752C404FF6FC752C400D882C43A9
:100C70004FF6FF552A400D894FF6FF7606EA052507
:100C80002A434D8806EA05252A43154DA84202D07D
:100C9000144DA8421DD14FF2FF752A404D894FF6E1
:100CA000FF7606EA05252A434FF6FF352A408D8850
:100CB00006EA05252A434EF6FF752B404DF6FF75D3
:100CC0002B408D8906EA05152B43CD8906EA0515CB
:100CD0002B4383808483CD888587028470BD000088
:100CE000002C0140003401400A460021818B4FF660
:100CF000F7731940114381837047000070B50022DB
:100D000000230024058C4EF6FF7635400584038CC5
:100D10008488828B48F6FF752A404FF6FF452A40AB
:100D20000D884FF6FF7606EA05252A434DF6FF7536
:100D30002B400D8906EA05352B434D8806EA05351B
:100D40002B430B4DA84202D00A4DA84208D14BF6C6
:100D5000FF752C408D894FF6FF7606EA85152C43EA
:100D600084808283CD88A0F84050038470BD000049
:100D7000002C0140003401400A460021818B4FF2D3
:100D8000FF7319404FF6FF7303EA0223194381836F
:100D90007047818570478186704781847047000065
:100DA000002202881D4B98420ED01D4B98420BD05A
:100DB000B0F1804F08D01B4B984205D01A4B984297
:100DC00002D01A4B984204D14FF68F731A404B88C9
:100DD0001A43174B984207D0164B984204D04FF64F
:100DE000FF431A40CB881A4302808B8883850B8887
:100DF00003850A4B98420BD0094B984208D00E4B02
:100E0000984205D00D4B984202D00D4B984201D12B
:100E10000B7A03860123838270470000002C014077
:100E2000003401400004004000080040000C004075
:100E30000010004000140040004001400044014008
:100E40000048014000BFFEE74100080218BF04202F
:100E50000A0E18BF40F001004FF07F4232EA010154
:100E600008BF40F00200012808BF0520704701219B
:100E700000F0ABBE61214FF0E04000F0A6BE6FF085
:100E80005E01080700F0A1BE4FF4964300FB03F299
:100E9000002100E0491C9142FCD370472DE9F0414C
:100EA00004464FF019404E49002500EB44008842AB
:100EB0004AD84C49204600F0DBFC00F0A5FD8046F6
:100EC00000F06EFC06464849404600F0D1FC07465B
:100ED0004649404600F0CCFC214600F0C5FD3946AD
:100EE00000F0CCFD0446424900F0C2FC414900F04C
:100EF00021FB214600F0BCFC6FF0414100F01AFBE1
:100F0000214600F0B5FC3C4900F014FB214600F0FE
:100F1000AFFC0146394806F00304784450F8240039
:100F200000F0A6FC3649794451F8241000F002FB89
:100F30003449794451F8241000F0FCFAB11085BB13
:100F4000BDE8F04100F041BE4FF0FF4131EA04003E
:100F500018D04FF0CE41B1EB440F84BF4FF07E501C
:100F6000BDE8F0812849B1EB440F28BF0125A0D28C
:100F70000220FFF731F914F0004F0ED0BDE8F04128
:100F8000FFF77DBF204614F5000F04BF0020BDE829
:100F9000F081BDE8F041FFF76ABFBDE8F041FFF71F
:100FA00069BF00F012FE04000BD0B4F1FF4F0FD068
:100FB000FFF74AFF042808BFFFF761FF2046BDE89E
:100FC000F0810220FFF708F9BDE8F041FFF757BFB5
:100FD0000220FFF701F9BDE8F041FFF74BBF000029
:100FE0000000501E3BAAB840F4FD05370070313EAA
:100FF00012BB2A3D12BB2A3EFFFF7F3F4A0D000075
:101000002E0D0000120D00000000A08510B50A484A
:101010000078C0430849087008460078002805DDBC
:101020004FF480510548FFF719FA04E04FF480515E
:101030000248FFF711FA10BD18000020000C014013
:1010400008B501210820FFF7E5FA4FF48050ADF80C
:10105000000003208DF8020010208DF8030069467F
:101060000448FFF76EF94FF480510248FFF7F6F994
:1010700008BD0000000C014000F000F81CB5FFF7AF
:10108000DFFF4FF081400A490A4B0B4ACDE90010BF
:101090000A490B48FFF7E4F800214FF4FA60FFF724
:1010A0001DFA04E0FFF7B2FF0A20FFF7EDFEF9E7B3
:1010B0000000FA440050434700007A44D80F002053
:1010C0003800002021F00042A2F16052B2F5801FEA
:1010D00001F0004328BFD2F17F6C0BD95FEA001CFE
:1010E00043EAC20242EB507018BF704728BF20F09D
:1010F00001007047B2F5801FBCBF184670474FEA29
:10110000410C1CF5001F02D2084600F078BC70B5F7
:1011100000F08FF900000089FFF7F6BF4FF00040A4
:10112000A0F58000704700002DE9C04130B4DFF821
:10113000A0C23CEA111418BF3CEA131400F0EC8082
:1011400081EA03051CEA111444EAD57418BF1CEAAD
:10115000131500F0C780A4EB05044FF0004545EAE5
:10116000C12145EAC32341EA505143EA525304F1F5
:101170007F74994204F500344FEAC0204FEAC2223E
:1011800008BF904200F09C804FEA13650FF24016B2
:10119000765D4FEA134506FB05F7C7F1807706FB3E
:1011A00007F74FEAD737A7FB03687642C8F58038C0
:1011B000A7FB06CE38BFA8F1010807FB08E64FF0F1
:1011C000000EA6FB028CE6FB03CEDCF1000CCEF198
:1011D000004E38BFAEF1010EA6FB0C584FF00007D1
:1011E0004FF00005E6FB0E87A1FB08C6A0FB07CE6B
:1011F00016EB0E0645F10005E1FB076515F1E04E23
:101200007EBFA4F580345FEA46066D4116F1800783
:1012100045F100054FEA17274FEA066647EA0567DA
:10122000A6F1DE46B6F1805F4FEA15251FD9384694
:1012300024F0010C05EBC471BCF1FE6F01EB0C1145
:1012400002D8F0BCBDE8008124425CBF01F5801EDD
:101250009EEAC47F02D4F0BCBDE80081244238D4A9
:10126000F0BCA1F1C041BDE8004100F030B94FEA47
:10127000D22242EA43524FEAD323A7FB02864FEA27
:10128000D02040EA415007FB03661EEA0E0F4FEAEA
:10129000D12105FB026658BFA6EB0056B6EB0056FF
:1012A0004FEA520E4EEAC37E18EB0E0E56EB530E6B
:1012B000BDD518EB02085E417F1C55F10005B6E76D
:1012C0004FF480154FF000074FF000064FF0000874
:1012D000ADE7F0BC4FF0000001F1C04101F000416A
:1012E000BDE8008111EA0C1F0CEA131500D00CE0D8
:1012F00013EA0C1F00F025804FF00000F0BC81EADB
:10130000030101F00041BDE80081F0BCBDE80041EF
:1013100081EA030100F0DBB8F0BCBDE8004170B524
:1013200000F087F8097EFC3E00F007B881EA03016F
:101330004FF0000001F00041704781EA030100F026
:10134000C6B8F0BCBDE800414FF00000214970472D
:10135000FFFDFBF9F7F5F4F2F0EEEDEBE9E8E6E47A
:10136000E3E1E0DEDDDBDAD8D7D5D4D3D1D0CFCD01
:10137000CCCBCAC8C7C6C5C4C2C1C0BFBEBDBCBB3A
:10138000BAB9B8B7B6B5B4B3B2B1B0AFAEADACAB35
:10139000AAA9A8A8A7A6A5A4A3A3A2A1A09F9F9E0F
:1013A0009D9C9C9B9A9999989797969595949393C1
:1013B000929191908F8F8E8E8D8C8C8B8B8A898958
:1013C00088888787868585848483838282818180DB
:1013D0000000FF070000F87F4FEA1153A3F5806378
:1013E000D3F11E03A8BFD3F1200C08DB4FF000425D
:1013F00042EAC12252EA505232FA03F070470942DF
:101400000BD4102BC4BF0020704703F5787CBCF1CF
:10141000FF3F05D04FF0FF3070474FF0000070479E
:1014200070B500F006F800BF499224800020704794
:10143000F0E70EF1020E2EF0030E5EF8046B36425A
:1014400005D4012A43EB030515F5001F12D8012826
:1014500041EB010C1CF5001F0CD80ED14FEAD17CDA
:1014600015F5001F0CEB4C0C0CF1020C08BF4CEBFB
:10147000D37C04E04FF0080C01E04FEAD37C0CEB86
:101480004C0526FA05F606F00706B6F1040C06D25E
:101490000EEB860CBDE870404CF0010C6047DFE8B5
:1014A0000CF0090B02024FF000414FF00000A1F5D3
:1014B000002170BD19461046012851EB010418BFE8
:1014C000D4F5001484BF002001F0004170BD08086D
:1014D000A0F500114FEA31017047000043004FEAC8
:1014E000D30C4FEA3C0C43401FBF40070CF1605146
:1014F00013F0FE4F70471CF0006F03D100200CF07A
:10150000004170470CF0004343EA507010B540EAC8
:10151000CC0000F02EFA00BF000000924FEA00015C
:10152000FFF7D5BF4FF000414FF00000A1F50021BB
:101530007047000090EA010F48BF81F0004100F1C0
:10154000A482421A3CBF801A89184FEAD0524FF049
:101550007F4C1CEA410FA2EBD15318BF9CEA026FEB
:1015600000F03B804FF0004C4CEA00204CEA012197
:1015700021FA03FC10EB0C0C1ED202F1FF325FEAE1
:101580001C2040EBC25038BF70471CF07F0F4FEA61
:10159000400C18BFBCF17F4F38BF7047C3F1200328
:1015A000994008BF20F00100BCF17F4F38BF704761
:1015B000A0F1C04000F023BA4FEA3C00000A40EB23
:1015C000C25028BF1CF0FF0F4FEA400CE6D018BFF6
:1015D000BCF17F4F38BF7047EAE79CEA026F05D045
:1015E00010EA5C0F08BF00F00040704710B500F033
:1015F000C0F900BF64FBBE3E014800F0B4BA00BFB2
:101600000000C07F401058BFC0F14040491058BF93
:10161000C1F140418142EFF3008070474FF47F0CED
:101620001CEAD0121EBF1CEAD11392EA0C0F93EAF7
:101630000C0F00F0858090EA010F48BF42F48072E1
:1016400040F4000C41F400002CF07F4120F07F407A
:1016500000B58142A2EB03020FF2081CACEB504E26
:10166000C0F100009EF800E04FEA4E0E00FB0EFCB9
:1016700038BF49004FEA2C1C02F5FA020CFB0EF3AE
:101680004FEACE1E4FEA112C4FEAC1210EEB635EEA
:1016900042EB22420EFB0CFC4FEA1C5300FB0311F1
:1016A0004FEA112C4FEA01310EFB0CFC4FEADC4CE7
:1016B00000FB0C11C14228BF09184CEB03335DF845
:1016C00004EB10EB410143EBC250B2F57C0F38BF85
:1016D000704729D512F0F00F1CBF00F1C04000F098
:1016E00000407047008182838485868788898B8C3F
:1016F0008D8E8F919293959697999A9C9D9FA0A27B
:10170000A3A5A7A8AAACAEB0B2B3B5B7B9BCBEC0CA
:10171000C2C5C7C9CCCED1D4D7D9DCDFE2E6E9EC6B
:10172000F0F3F7FAFE0000004FEA400C0CF1807C69
:10173000BCF17E4F28BF7047B0F1C04000F05FB9E8
:1017400090EA010F0CEAD11348BF42F4807262455F
:1017500038BF634507D213F47F0F16D080EA01002B
:1017600000F00040704710B500F003F9097EFC3E20
:1017700000F005B880EA010000F00040704780EA00
:10178000010000F0004000F03AB912F47F0F04BFEE
:101790000248704780EA010000F031B90000C07FC4
:1017A00041000B0ED3F19E0208D950F400034FEA1A
:1017B000032323FA02F048BF4042704710B500F0FF
:1017C000D8F800BF49922480002070476FF0004293
:1017D00082EA20007047000010F0004148BF4042FC
:1017E000B0FA80F310FA03F2C3F19D030BD051EA73
:1017F000C35101EB1220530638BF704700F10100BE
:1018000008BF20F00100704750EA010C00F113807E
:101810001CF5000F58BFBCF5000F01D4884270477B
:1018200007D710F5000F58BF11F5000F15D48842E7
:101830007047894270471CF5000F04D5BCF5000FB6
:10184000F7D5814270474FF0807C1CEB400F38BFCA
:101850001CEB410F01D28142704710B500F089F8AE
:10186000922449004FF000504FF08051FFF7CABE5C
:101870004FF47F0C1CEAD0121EBF1CEAD11392EA6F
:101880000C0F93EA0C0F00F0478090EA010F48BF5D
:1018900042F480724FF0004C4CEA00204CEA0121E7
:1018A00002EB0302A0FB0113A2F50002002918BFFE
:1018B00043F001035B0028BF4FEA330342EB2242AF
:1018C0005FEA132C4CEBC2502EBFBCEB436FB2F55A
:1018D0007C0F70474FEA036CBCF1004F08BF20F04B
:1018E0000100B2F57C0F38BF70470BD582F0FF02C4
:1018F00012F5803FC8BF704700F1C040D8BF00F06C
:101900000040704700F5000C5FEA4C0C48BF704780
:10191000B0F1C04000F073B890EA010F0CEAD113A7
:1019200048BF42F48072624538BF634504D280EA02
:10193000010000F00040704710B500F01AF800BF39
:101940008900013E00F007B800F009B85FEA410CD9
:101950005FEA1C6C08D080EA010000F050B85FEA32
:10196000400C5FEA1C6CF6D14FF00040A0F58000FF
:1019700070470EF1020E2EF0030E5EF8044B244267
:1019800004D44FEA4102B2F17F4F11D84FEA40032D
:10199000B3F17F4F0CD80ED14FEAD07CB2F17F4F1C
:1019A0000CEB4C0C0CF1020C08BF4CEBD17C04E0AE
:1019B0004FF0080C01E04FEAD17C0CEB4C0324FA09
:1019C00003F404F00704B4F1040C06D20EEB840C0B
:1019D000BDE810404CF0010C6047DFE80CF0070850
:1019E00002024FF00040A0F5800010BD0846420002
:1019F00018BFD2F1807288BF00F0004010BDFF21F7
:101A000041EAD050C00570475FEA400C5FEA1C6CA9
:101A1000BCF17F0314D4D3F1170240F31C804FF0C4
:101A2000010C0CFA02FCACF101030340B3EB5C02C5
:101A300020EA030008BF10EA0C0F88BF604470471B
:101A4000B3F1FF3F28BF5FEA002C00F0004088BFE1
:101A500040F07E507047BCF1FF0FB8BF704710B523
:101A6000FFF787FF40DBB6BE80F0004090EA010F31
:101A70007FF567AD81F0004100F007B890EA010FF3
:101A800048BF81F000413FF55CAD421A04D882F0B6
:101A90000042A0EB020011444FEAD0524FF07F4CBD
:101AA0001CEA410FA2EBD15318BF9CEA026F4AD047
:101AB0004FF0004C4CEA00204CEA012121FA03FCD3
:101AC000B0EB0C0C0FD412F0FE0F36D05FEA4C00D6
:101AD0001DD5001240EBC25038BF70471CF03F0FBD
:101AE00018BF70470BE0A2F101025FEA1C2040EB37
:101AF000C25038BF70471CF07F0F18BF7047C3F14A
:101B00002003994014BF401E20F001007047800858
:101B10004FEA122308BF7047B0FA80FCA2EB0C0218
:101B2000CCF1280C60FA0CF093EA122F04BF00EB02
:101B3000C25070474FEAC3707047130A5FEADC1067
:101B400008BF7047F6E79CEA026F04D010EA5C0F0A
:101B500008BF0020704710B5FFF70BFF40DFF63ECF
:101B600081F0004070470CF00F03092B08BF0820DC
:101B700000F051800A2B0BD0082B18BF704708BF0C
:101B80001CF0400F0AD04FF000004FF000017047EA
:101B90001CF0400F18BF4FF0004070471CF0100FB2
:101BA00008D020F0704300F07F4242EAD3014FEAB0
:101BB0004370704700F0604021F07F4242EA00022B
:101BC00001F07F4040EA727070474FF0FF0212EA66
:101BD000D0521CBF92F0FF038B42C2BFD14200EB38
:101BE000C1507047002A0AD0002B0BD0002900F00A
:101BF0000040A4BF40F0FE4040F40000704700F0F9
:101C00000040704743024FF00B0C18BF4CF0806C43
:101C10007FF4F2AC70471CF4801F11D01CF4E02F4D
:101C200003D06FEACC31490070474FF04050EFF3DA
:101C3000008222F0704242EA000282F3008870477C
:101C40004FF00000704700000000803F0030983FD8
:101C50000000B53F0040D73F00000000320A7E3947
:101C60007F661E395B991F390000803FF037983F2F
:101C7000F304B53FFD44D73F981C00080000002046
:101C80003800000028010008D01C0008380000209F
:101C9000D01D00004401000800000000000000000A
:101CA0003F381F1C0F0E9F05CF02000000000000F0
:101CB00000000000000000000000000040190100CA
:101CC0000000000000000000000000000000000014
:040000050800018965
:00000001FF
