:020000040800F2
:100000007806002089010008630300085B030008EC
:100010005F0300083B020008F90B00080000000025
:10002000000000000000000000000000AD04000817
:100030003F0200080000000029040008990500089C
:10004000A3010008A3010008FD050008A3010008A2
:10005000A3010008A3010008A3010008A3010008F0
:10006000A3010008A3010008A3010008A3010008E0
:10007000A3010008A3010008A3010008A3010008D0
:10008000A3010008A3010008A3010008A3010008C0
:10009000A3010008A3010008A3010008A3010008B0
:1000A000A3010008A3010008A3010008A3010008A0
:1000B00001060008A3010008A3010008A30100082D
:1000C000A3010008A3010008A3010008A301000880
:1000D000A3010008A3010008A3010008A301000870
:1000E000A3010008A3010008A301000800F002F822
:1000F00000F03AF80AA090E8000C82448344AAF188
:100100000107DA4501D100F02FF8AFF2090EBAE885
:100110000F0013F0010F18BFFB1A43F0010318473B
:10012000980B0000B80B0000103A24BF78C878C1C3
:10013000FAD8520724BF30C830C144BF04680C60ED
:10014000704700000023002400250026103A28BF35
:1001500078C1FBD8520728BF30C148BF0B60704739
:100160001FB51FBD10B510BD00F031F81146FFF7E7
:10017000F7FF00F069FD00F04FF803B4FFF7F2FF5E
:1001800003BC00F053F800000948804709480047C5
:10019000FEE7FEE7FEE7FEE7FEE7FEE7FEE7FEE737
:1001A000FEE7FEE704480549054A064B7047000094
:1001B0009D050008ED00000878000020780600206A
:1001C000780200207802002070477047704775461B
:1001D00000F028F8AE4605006946534620F00700B7
:1001E000854618B020B5FFF7DDFFBDE820404FF091
:1001F00000064FF000074FF000084FF0000B21F011
:100200000701AC46ACE8C009ACE8C009ACE8C009DD
:10021000ACE8C0098D4670470446AFF30080204625
:10022000FFF7ABFF00487047180000200149182075
:10023000ABBEFEE726000200704700BFFEE7704736
:100240002DE9F0410246002500260020002300246D
:10025000002791F803C00CF00F0591F803C00CF0D3
:10026000100CBCF1000F03D091F802C04CEA050558
:1002700091F800C0BCF1000F31D0146800202BE0D1
:100280004FF0010C0CFA00F3B1F800C00CEA0306C1
:100290009E4220D183004FF00F0C0CFA03F7BC43B1
:1002A00005FA03FC4CEA040491F803C0BCF1280FE2
:1002B00006D14FF0010C0CFA00FCC2F814C00AE0A1
:1002C00091F803C0BCF1480F05D14FF0010C0CFAB6
:1002D00000FCC2F810C0401C0828D1D31460B1F84B
:1002E00000C0BCF1FF0F34DD546800202EE000F1A7
:1002F000080C4FF0010808FA0CF3B1F800C00CEA42
:1003000003069E4221D183004FF00F0C0CFA03F735
:10031000BC4305FA03FC4CEA040491F803C0BCF1A9
:10032000280F05D100F1080C08FA0CF8C2F8148067
:1003300091F803C0BCF1480F07D100F1080C4FF051
:10034000010808FA0CF8C2F81080401C0828CED327
:100350005460BDE8F0810161704700BFFEE700BF57
:10036000FEE7704730B589B005460C4601210846C6
:1003700000F05CF80121052000F078F80F20ADF8BE
:10038000200018208DF8230003208DF8220008A9F2
:100390002448FFF755FF4FF0804000F073F9ADF8A7
:1003A0001850ADF814400020ADF81A00ADF8160052
:1003B00005A94FF0804000F0CDFB6020ADF80400AF
:1003C0000120ADF806000020ADF80C003220ADF899
:1003D0000A0001A9400700F05BFA01A94FF0804034
:1003E00000F0ACFA01A94FF0804000F007FB01A932
:1003F0004FF0804000F05CFB0821C80600F094FA42
:100400000821C80600F0ECFA0821C80600F046FBF7
:100410000821C80600F08AFB0121880700F025F9B1
:1004200009B030BD000801407047000029B1064AFC
:10043000D2690243044BDA6104E0034AD269824381
:10044000014BDA61704700000010024029B1064AF2
:1004500012690243044B1A6104E0034A12698243A1
:10046000014B1A61704700000010024029B1064A92
:1004700092690243044B9A6104E0034A9269824301
:10048000014B9A61704700000010024029B1064AF2
:10049000D2680243044BDA6004E0034AD268824324
:1004A000014BDA607047000000100240704710B541
:1004B00000F002F810BD00000CB500200190009083
:1004C0003348006840F480303149086000BF30484C
:1004D000006800F4003000900198401C01900098E2
:1004E00018B90198B0F5A06FF1D12948006800F45F
:1004F000003010B10120009001E000200090009831
:10050000012843D12348006840F0100021490860C9
:100510000846006820F0070008600846006840F0C0
:10052000020008601A484068194948600846406857
:1005300048600846406840F480604860084640686B
:1005400020F47C1048600846406840F4E810486099
:100550000846006840F08070086000BF0C480068E2
:1005600000F000700028F9D00948406820F003002E
:10057000074948600846406840F00200486000BFF4
:100580000348406800F00C000828F9D10CBD0000B9
:1005900000100240002002407047000010B51348D0
:1005A000006840F0010011490860084640681049A1
:1005B00008400E494860084600680E4908400B494B
:1005C00008600846006820F48020086008464068FB
:1005D00020F4FE0048604FF41F008860FFF767FFBB
:1005E0004FF000600449086010BD00000010024098
:1005F0000000FFF8FFFFF6FE08ED00E07047000086
:1006000010B50121880700F031F930B301218807C6
:1006100000F028F81148006818B900201049086057
:1006200006E00E480068642802D101200C490860E9
:100630000B48006828B909480068401C0749086051
:1006400004E006480068401E04490860034800684A
:1006500081B24FF0804000F079FA10BD0000002018
:1006600004000020CA430282704721B1028842F090
:100670000102028004E002884FF6FE731A400280F5
:100680007047000010B504466848844208D1012133
:10069000C014FFF7FBFE0021E014FFF7F7FEC4E0F3
:1006A000B4F1804F08D101210846FFF7CFFE0021A9
:1006B0000120FFF7CBFEB8E05D48844208D101215C
:1006C0000220FFF7C3FE00210220FFF7BFFEACE0CF
:1006D0005848844208D101210420FFF7B7FE0021C9
:1006E0000420FFF7B3FEA0E05348844208D1012163
:1006F0000820FFF7ABFE00210820FFF7A7FE94E0DB
:100700004E48844208D101211020FFF79FFE0021AE
:100710001020FFF79BFE88E04948844208D1012160
:100720002020FFF793FE00212020FFF78FFE7CE0C2
:100730004448844208D101214014FFF7A7FE00215C
:100740006014FFF7A3FE70E03F48844209D1012105
:10075000C804FFF79BFE00214FF40020FFF796FE30
:1007600063E03A48844209D101210805FFF78EFE73
:1007700000214FF48010FFF789FE56E03448844290
:1007800009D101214805FFF781FE00214FF4001037
:10079000FFF77CFE49E02F48844208D10121402028
:1007A000FFF754FE00214020FFF750FE3DE02A48AD
:1007B000844208D101218020FFF748FE00218020DB
:1007C000FFF744FE31E02548844208D1012180151D
:1007D000FFF73CFE0021A015FFF738FE25E020487A
:1007E000844209D101210804FFF750FE00214FF493
:1007F0008030FFF74BFE18E01A48844209D10121EE
:100800004804FFF743FE00214FF40030FFF73EFE9F
:100810000BE01548844208D101218804FFF736FE19
:1008200000214FF48020FFF731FE10BD002C014065
:100830000004004000080040000C00400010004090
:100840000014004000340140004C014000500140C1
:100850000054014000180040001C004000200040EF
:1008600000400140004401400048014030B50246CC
:10087000002000230024158A05EA0103958905EA72
:10088000010413B10CB1012000E0002030BD0000D4
:1008900070B5002400220023058C4FF6FE7635400B
:1008A0000584028C8388048B4FF68F752C40B51E0F
:1008B0002C400D882C43751E2A400D892A434D88F3
:1008C0002A43144DA8420BD0134DA84208D0134D13
:1008D000A84205D0124DA84202D0124DA84213D111
:1008E0004FF6F7752A404D892A434FF6FB752A408B
:1008F0008D882A434FF6FF652B404FF6FF552B405E
:100900008D892B43CD892B4383800483CD888586B5
:10091000028470BD002C01400034014000400140C1
:1009200000440140004801400A460021018B4FF677
:10093000F7731940114301837047000070B500241C
:1009400000220023058C4FF6EF7635400584028C9B
:100950008388048B48F6FF752C404FF6FF452C40EA
:100960000D884FF6FF7606EA05252C434FF6DF7516
:100970002A400D8906EA05152A434D8806EA051521
:100980002A43154DA84202D0144DA8421DD14FF65E
:100990007F752A404D894FF6FF7606EA05152A43F2
:1009A0004FF6BF752A408D8806EA05152A434FF693
:1009B000FF352B404FF2FF752B408D8906EA8505E8
:1009C0002B43CD8906EA85052B4383800483CD889C
:1009D0000587028470BD0000002C014000340140F6
:1009E0000A460021018B4FF2FF7319404FF6FF7347
:1009F00003EA0223194301837047000070B5002405
:100A000000220023058C4FF6FF6635400584028CDA
:100A10008388848B4FF68F752C404FF6FC752C40E5
:100A20000D882C434FF6FF552A400D894FF6FF766F
:100A300006EA05252A434D8806EA05252A43154D71
:100A4000A84202D0144DA8421DD14FF2FF752A4092
:100A50004D894FF6FF7606EA05252A434FF6FF3506
:100A60002A408D8806EA05252A434EF6FF752B405D
:100A70004DF6FF752B408D8906EA05152B43CD8970
:100A800006EA05152B4383808483CD8885870284FD
:100A900070BD0000002C0140003401400A460021D6
:100AA000818B4FF6F7731940114381837047000023
:100AB00070B5002200230024058C4EF6FF763540E9
:100AC0000584038C8488828B48F6FF752A404FF694
:100AD000FF452A400D884FF6FF7606EA05252A4392
:100AE0004DF6FF752B400D8906EA05352B434D88E1
:100AF00006EA05352B430B4DA84202D00A4DA84209
:100B000008D14BF6FF752C408D894FF6FF7606EA2B
:100B100085152C4384808283CD88A0F840500384BF
:100B200070BD0000002C0140003401400A46002145
:100B3000818B4FF2FF7319404FF6FF7303EA0223D4
:100B4000194381837047018582827047818670478F
:100B500081847047002202881D4B98420ED01D4BA5
:100B600098420BD0B0F1804F08D01B4B984205D073
:100B70001A4B984202D01A4B984204D14FF68F7309
:100B80001A404B881A43174B984207D0164B98428D
:100B900004D04FF6FF431A40CB881A4302808B885B
:100BA00083850B8803850A4B98420BD0094B9842EA
:100BB00008D00E4B984205D00D4B984202D00D4BF9
:100BC000984201D10B7A038601238382704700008B
:100BD000002C0140003401400004004000080040A7
:100BE000000C004000100040001400400040014094
:100BF000004401400048014000BFFEE74FF4964327
:100C000000FB03F2002100E0491C9142FCD3704735
:100C100008B501210820FFF729FC4FF48050ADF8FA
:100C2000000003208DF8020010208DF803006946B3
:100C30000448FFF705FB4FF480510248FFF78BFB98
:100C400008BD0000000C0140FFF7E2FF41F61F4124
:100C50006320FFF787FB29E000201549086021E0A9
:100C600000214FF08040FFF700FD0520FFF7C6FF91
:100C700010480F4A126830F8121001229007FFF74F
:100C800062FF00214FF08040FFF762FF01218807DB
:100C9000FFF7EBFC3220FFF7B1FF05480068401C6E
:100CA00003490860024800680528D9DBD4E7000042
:100CB0001400002008000020D80C000800000020CC
:100CC0001800000028010008F00C0008180000209F
:100CD0006006000044010008000000000000000061
:100CE0003F381F1C0F0E9F05CF02000000000000C0
:040000050800018965
:00000001FF
